{
  "contractName": "BasicToken",
  "abi": [
    {
      "constant": true,
      "inputs": [],
      "name": "totalSupply",
      "outputs": [
        {
          "name": "",
          "type": "uint256"
        }
      ],
      "payable": false,
      "stateMutability": "view",
      "type": "function"
    },
    {
      "constant": true,
      "inputs": [],
      "name": "owner",
      "outputs": [
        {
          "name": "",
          "type": "address"
        }
      ],
      "payable": false,
      "stateMutability": "view",
      "type": "function"
    },
    {
      "constant": true,
      "inputs": [],
      "name": "newOwner",
      "outputs": [
        {
          "name": "",
          "type": "address"
        }
      ],
      "payable": false,
      "stateMutability": "view",
      "type": "function"
    },
    {
      "inputs": [],
      "payable": false,
      "stateMutability": "nonpayable",
      "type": "constructor"
    },
    {
      "anonymous": false,
      "inputs": [
        {
          "indexed": true,
          "name": "_from",
          "type": "address"
        },
        {
          "indexed": true,
          "name": "_to",
          "type": "address"
        }
      ],
      "name": "OwnershipTransferred",
      "type": "event"
    },
    {
      "anonymous": false,
      "inputs": [
        {
          "indexed": false,
          "name": "keterangan",
          "type": "string"
        }
      ],
      "name": "IncreaseToken",
      "type": "event"
    },
    {
      "anonymous": false,
      "inputs": [
        {
          "indexed": true,
          "name": "_from",
          "type": "address"
        },
        {
          "indexed": true,
          "name": "_to",
          "type": "address"
        },
        {
          "indexed": false,
          "name": "_value",
          "type": "uint256"
        },
        {
          "indexed": false,
          "name": "_status",
          "type": "string"
        },
        {
          "indexed": false,
          "name": "_message",
          "type": "string"
        }
      ],
      "name": "NewTransferBalance",
      "type": "event"
    },
    {
      "anonymous": false,
      "inputs": [
        {
          "indexed": true,
          "name": "from",
          "type": "address"
        },
        {
          "indexed": true,
          "name": "to",
          "type": "address"
        },
        {
          "indexed": false,
          "name": "value",
          "type": "uint256"
        }
      ],
      "name": "Transfer",
      "type": "event"
    },
    {
      "constant": false,
      "inputs": [
        {
          "name": "_newOwner",
          "type": "address"
        }
      ],
      "name": "transferOwnership",
      "outputs": [],
      "payable": false,
      "stateMutability": "nonpayable",
      "type": "function"
    },
    {
      "constant": false,
      "inputs": [],
      "name": "acceptOwnership",
      "outputs": [],
      "payable": false,
      "stateMutability": "nonpayable",
      "type": "function"
    },
    {
      "constant": false,
      "inputs": [
        {
          "name": "_to",
          "type": "address"
        },
        {
          "name": "_value",
          "type": "uint256"
        }
      ],
      "name": "transfer",
      "outputs": [
        {
          "name": "",
          "type": "bool"
        }
      ],
      "payable": false,
      "stateMutability": "nonpayable",
      "type": "function"
    },
    {
      "constant": true,
      "inputs": [
        {
          "name": "_owner",
          "type": "address"
        }
      ],
      "name": "balanceOf",
      "outputs": [
        {
          "name": "balance",
          "type": "uint256"
        }
      ],
      "payable": false,
      "stateMutability": "view",
      "type": "function"
    },
    {
      "constant": false,
      "inputs": [
        {
          "name": "_from",
          "type": "address"
        },
        {
          "name": "_to",
          "type": "address"
        },
        {
          "name": "_value",
          "type": "uint256"
        }
      ],
      "name": "transferFrom",
      "outputs": [
        {
          "name": "",
          "type": "bool"
        }
      ],
      "payable": false,
      "stateMutability": "nonpayable",
      "type": "function"
    },
    {
      "constant": true,
      "inputs": [],
      "name": "totSupply",
      "outputs": [
        {
          "name": "",
          "type": "uint256"
        }
      ],
      "payable": false,
      "stateMutability": "view",
      "type": "function"
    },
    {
      "constant": false,
      "inputs": [
        {
          "name": "_value",
          "type": "uint256"
        },
        {
          "name": "_ket",
          "type": "string"
        }
      ],
      "name": "increaseTokenSupply",
      "outputs": [],
      "payable": false,
      "stateMutability": "nonpayable",
      "type": "function"
    },
    {
      "constant": false,
      "inputs": [
        {
          "name": "_from",
          "type": "address"
        },
        {
          "name": "_to",
          "type": "address"
        },
        {
          "name": "_value",
          "type": "uint256"
        }
      ],
      "name": "newTransferBalance",
      "outputs": [
        {
          "name": "success",
          "type": "bool"
        }
      ],
      "payable": false,
      "stateMutability": "nonpayable",
      "type": "function"
    }
  ],
  "bytecode": "0x608060405234801561001057600080fd5b5033600160006101000a81548173ffffffffffffffffffffffffffffffffffffffff021916908373ffffffffffffffffffffffffffffffffffffffff160217905550611345806100616000396000f3fe6080604052600436106100af576000357c0100000000000000000000000000000000000000000000000000000000900463ffffffff168063171bc815146100b457806318160ddd1461014757806323b872dd1461017257806370a082311461020557806379ba50971461026a57806381fbf0a5146102815780638da5cb5b146102ac578063a9059cbb14610303578063d4ee1d9014610376578063e127386c146103cd578063f2fde38b1461049f575b600080fd5b3480156100c057600080fd5b5061012d600480360360608110156100d757600080fd5b81019080803573ffffffffffffffffffffffffffffffffffffffff169060200190929190803573ffffffffffffffffffffffffffffffffffffffff169060200190929190803590602001909291905050506104f0565b604051808215151515815260200191505060405180910390f35b34801561015357600080fd5b5061015c610940565b6040518082815260200191505060405180910390f35b34801561017e57600080fd5b506101eb6004803603606081101561019557600080fd5b81019080803573ffffffffffffffffffffffffffffffffffffffff169060200190929190803573ffffffffffffffffffffffffffffffffffffffff16906020019092919080359060200190929190505050610946565b604051808215151515815260200191505060405180910390f35b34801561021157600080fd5b506102546004803603602081101561022857600080fd5b81019080803573ffffffffffffffffffffffffffffffffffffffff169060200190929190505050610b7a565b6040518082815260200191505060405180910390f35b34801561027657600080fd5b5061027f610bc3565b005b34801561028d57600080fd5b50610296610d64565b6040518082815260200191505060405180910390f35b3480156102b857600080fd5b506102c1610d6d565b604051808273ffffffffffffffffffffffffffffffffffffffff1673ffffffffffffffffffffffffffffffffffffffff16815260200191505060405180910390f35b34801561030f57600080fd5b5061035c6004803603604081101561032657600080fd5b81019080803573ffffffffffffffffffffffffffffffffffffffff16906020019092919080359060200190929190505050610d93565b604051808215151515815260200191505060405180910390f35b34801561038257600080fd5b5061038b610fc6565b604051808273ffffffffffffffffffffffffffffffffffffffff1673ffffffffffffffffffffffffffffffffffffffff16815260200191505060405180910390f35b3480156103d957600080fd5b5061049d600480360360408110156103f057600080fd5b81019080803590602001909291908035906020019064010000000081111561041757600080fd5b82018360208201111561042957600080fd5b8035906020019184600183028401116401000000008311171561044b57600080fd5b91908080601f016020809104026020016040519081016040528093929190818152602001838380828437600081840152601f19601f820116905080830192505050505050509192919290505050610fec565b005b3480156104ab57600080fd5b506104ee600480360360208110156104c257600080fd5b81019080803573ffffffffffffffffffffffffffffffffffffffff169060200190929190505050611242565b005b6000600160009054906101000a900473ffffffffffffffffffffffffffffffffffffffff1673ffffffffffffffffffffffffffffffffffffffff163373ffffffffffffffffffffffffffffffffffffffff1614151561054e57600080fd5b60008211158061059d575081600360008673ffffffffffffffffffffffffffffffffffffffff1673ffffffffffffffffffffffffffffffffffffffff1681526020019081526020016000205411155b156106a8578273ffffffffffffffffffffffffffffffffffffffff168473ffffffffffffffffffffffffffffffffffffffff167f8d0f2247e322bca3e2c3107c12e4a14ee7123c0f69a11d9826793301e2ebb5d984604051808281526020018060200180602001838103835260068152602001807f6661696c656400000000000000000000000000000000000000000000000000008152506020018381038252603f8152602001807f5472616e736665722062616c616e6365206661696c65642c2062616c616e636581526020017f206e6f7420656e6f756768206f7220616d6f756e74206e6f742076616c696400815250604001935050505060405180910390a360009050610939565b6106fa82600360008773ffffffffffffffffffffffffffffffffffffffff1673ffffffffffffffffffffffffffffffffffffffff168152602001908152602001600020546112e290919063ffffffff16565b600360008673ffffffffffffffffffffffffffffffffffffffff1673ffffffffffffffffffffffffffffffffffffffff1681526020019081526020016000208190555061078f82600360008673ffffffffffffffffffffffffffffffffffffffff1673ffffffffffffffffffffffffffffffffffffffff168152602001908152602001600020546112fb90919063ffffffff16565b600360008573ffffffffffffffffffffffffffffffffffffffff1673ffffffffffffffffffffffffffffffffffffffff168152602001908152602001600020819055508273ffffffffffffffffffffffffffffffffffffffff168473ffffffffffffffffffffffffffffffffffffffff167f8d0f2247e322bca3e2c3107c12e4a14ee7123c0f69a11d9826793301e2ebb5d984604051808281526020018060200180602001838103835260078152602001807f73756363657373000000000000000000000000000000000000000000000000008152506020018381038252602b8152602001807f5472616e736665722062616c616e636520737563636573732c206e6f2070726f81526020017f626c656d7320666f756e64000000000000000000000000000000000000000000815250604001935050505060405180910390a38273ffffffffffffffffffffffffffffffffffffffff168473ffffffffffffffffffffffffffffffffffffffff167fddf252ad1be2c89b69c2b068fc378daa952ba7f163c4a11628f55a4df523b3ef846040518082815260200191505060405180910390a3600190505b9392505050565b60005481565b6000808211151561095657600080fd5b600073ffffffffffffffffffffffffffffffffffffffff168373ffffffffffffffffffffffffffffffffffffffff161415151561099257600080fd5b600360008573ffffffffffffffffffffffffffffffffffffffff1673ffffffffffffffffffffffffffffffffffffffff1681526020019081526020016000205482111515156109e057600080fd5b610a3282600360008773ffffffffffffffffffffffffffffffffffffffff1673ffffffffffffffffffffffffffffffffffffffff168152602001908152602001600020546112e290919063ffffffff16565b600360008673ffffffffffffffffffffffffffffffffffffffff1673ffffffffffffffffffffffffffffffffffffffff16815260200190815260200160002081905550610ac782600360008673ffffffffffffffffffffffffffffffffffffffff1673ffffffffffffffffffffffffffffffffffffffff168152602001908152602001600020546112fb90919063ffffffff16565b600360008573ffffffffffffffffffffffffffffffffffffffff1673ffffffffffffffffffffffffffffffffffffffff168152602001908152602001600020819055508273ffffffffffffffffffffffffffffffffffffffff168473ffffffffffffffffffffffffffffffffffffffff167fddf252ad1be2c89b69c2b068fc378daa952ba7f163c4a11628f55a4df523b3ef846040518082815260200191505060405180910390a3600190509392505050565b6000600360008373ffffffffffffffffffffffffffffffffffffffff1673ffffffffffffffffffffffffffffffffffffffff168152602001908152602001600020549050919050565b600260009054906101000a900473ffffffffffffffffffffffffffffffffffffffff1673ffffffffffffffffffffffffffffffffffffffff163373ffffffffffffffffffffffffffffffffffffffff16141515610c1f57600080fd5b600260009054906101000a900473ffffffffffffffffffffffffffffffffffffffff1673ffffffffffffffffffffffffffffffffffffffff16600160009054906101000a900473ffffffffffffffffffffffffffffffffffffffff1673ffffffffffffffffffffffffffffffffffffffff167f8be0079c531659141344cd1fd0a4f28419497f9722a3daafe3b4186f6b6457e060405160405180910390a3600260009054906101000a900473ffffffffffffffffffffffffffffffffffffffff16600160006101000a81548173ffffffffffffffffffffffffffffffffffffffff021916908373ffffffffffffffffffffffffffffffffffffffff1602179055506000600260006101000a81548173ffffffffffffffffffffffffffffffffffffffff021916908373ffffffffffffffffffffffffffffffffffffffff160217905550565b60008054905090565b600160009054906101000a900473ffffffffffffffffffffffffffffffffffffffff1681565b60008082111515610da357600080fd5b600073ffffffffffffffffffffffffffffffffffffffff168373ffffffffffffffffffffffffffffffffffffffff1614151515610ddf57600080fd5b600360003373ffffffffffffffffffffffffffffffffffffffff1673ffffffffffffffffffffffffffffffffffffffff168152602001908152602001600020548211151515610e2d57600080fd5b610e7f82600360003373ffffffffffffffffffffffffffffffffffffffff1673ffffffffffffffffffffffffffffffffffffffff168152602001908152602001600020546112e290919063ffffffff16565b600360003373ffffffffffffffffffffffffffffffffffffffff1673ffffffffffffffffffffffffffffffffffffffff16815260200190815260200160002081905550610f1482600360008673ffffffffffffffffffffffffffffffffffffffff1673ffffffffffffffffffffffffffffffffffffffff168152602001908152602001600020546112fb90919063ffffffff16565b600360008573ffffffffffffffffffffffffffffffffffffffff1673ffffffffffffffffffffffffffffffffffffffff168152602001908152602001600020819055508273ffffffffffffffffffffffffffffffffffffffff163373ffffffffffffffffffffffffffffffffffffffff167fddf252ad1be2c89b69c2b068fc378daa952ba7f163c4a11628f55a4df523b3ef846040518082815260200191505060405180910390a36001905092915050565b600260009054906101000a900473ffffffffffffffffffffffffffffffffffffffff1681565b600160009054906101000a900473ffffffffffffffffffffffffffffffffffffffff1673ffffffffffffffffffffffffffffffffffffffff163373ffffffffffffffffffffffffffffffffffffffff1614151561104857600080fd5b61105d826000546112fb90919063ffffffff16565b6000819055506110d78260036000600160009054906101000a900473ffffffffffffffffffffffffffffffffffffffff1673ffffffffffffffffffffffffffffffffffffffff1673ffffffffffffffffffffffffffffffffffffffff168152602001908152602001600020546112fb90919063ffffffff16565b60036000600160009054906101000a900473ffffffffffffffffffffffffffffffffffffffff1673ffffffffffffffffffffffffffffffffffffffff1673ffffffffffffffffffffffffffffffffffffffff168152602001908152602001600020819055503373ffffffffffffffffffffffffffffffffffffffff16600073ffffffffffffffffffffffffffffffffffffffff167fddf252ad1be2c89b69c2b068fc378daa952ba7f163c4a11628f55a4df523b3ef846040518082815260200191505060405180910390a37f24adb8d3fb13ade6be5309cd43aa5f40d25f4df162a7cfec634a33eb110d45ad816040518080602001828103825283818151815260200191508051906020019080838360005b838110156112045780820151818401526020810190506111e9565b50505050905090810190601f1680156112315780820380516001836020036101000a031916815260200191505b509250505060405180910390a15050565b600160009054906101000a900473ffffffffffffffffffffffffffffffffffffffff1673ffffffffffffffffffffffffffffffffffffffff163373ffffffffffffffffffffffffffffffffffffffff1614151561129e57600080fd5b80600260006101000a81548173ffffffffffffffffffffffffffffffffffffffff021916908373ffffffffffffffffffffffffffffffffffffffff16021790555050565b60008282111515156112f057fe5b818303905092915050565b600080828401905083811015151561130f57fe5b809150509291505056fea165627a7a72305820d51694c21dd0d8ab18d9a3dcb4fd10ca54a0bc1b5f4dda5ebead7fc284c449e20029",
  "source": "pragma solidity ^0.5.0;\n\ncontract ERC20Basic {\n    uint256 public totalSupply;\n    function balanceOf(address who) public view returns (uint256);\n    function transfer(address to, uint256 value) public returns (bool);\n    event Transfer(address indexed from, address indexed to, uint256 value);\n}\n\nlibrary SafeMath {\n\n    function mul(uint256 a, uint256 b) internal pure returns (uint256) {\n        if (a == 0) {\n            return 0;\n        }\n        uint256 c = a * b;\n        assert(c / a == b);\n        return c;\n    }\n\n    function div(uint256 a, uint256 b) internal pure returns (uint256) {\n        uint256 c = a / b;\n        return c;\n    }\n\n    function sub(uint256 a, uint256 b) internal pure returns (uint256) {\n        assert(b <= a);\n        return a - b;\n    }\n\n    function add(uint256 a, uint256 b) internal pure returns (uint256) {\n        uint256 c = a + b;\n        assert(c >= a);\n        return c;\n    }\n}\n\ncontract BasicToken is ERC20Basic {\n    using SafeMath for uint256;\n\n    address public owner;\n    address public newOwner;\n\n    mapping(address => uint256) balances;\n\n    modifier onlyOwner {\n        require(msg.sender == owner);\n        _;\n    }\n\n    event OwnershipTransferred(address indexed _from, address indexed _to);\n\n    constructor () public {\n        owner = msg.sender;\n    }\n\n    function transferOwnership(address _newOwner) public onlyOwner {\n        newOwner = _newOwner;\n    }\n    function acceptOwnership() public {\n        require(msg.sender == newOwner);\n        emit OwnershipTransferred(owner, newOwner);\n        owner = newOwner;\n        newOwner = address(0);\n    }\n\n    function transfer(address _to, uint256 _value) public returns (bool) {\n        require(_value > 0);\n        require(_to != address(0));\n        require(_value <= balances[msg.sender]);\n\n        balances[msg.sender] = balances[msg.sender].sub(_value);\n        balances[_to] = balances[_to].add(_value);\n        emit Transfer(msg.sender, _to, _value);\n        return true;\n    }\n\n    function balanceOf(address _owner) public view  returns (uint256 balance) {\n        return balances[_owner];\n    }\n\n    function transferFrom(address _from, address _to, uint256 _value) public returns (bool) {\n        require(_value > 0);\n        require(_to != address(0));\n        require(_value <= balances[_from]);\n\n        balances[_from] = balances[_from].sub(_value);\n        balances[_to] = balances[_to].add(_value);\n        emit Transfer(_from, _to, _value);\n        return true;\n\n    }\n\n    function totSupply() public view returns (uint256){\n        return totalSupply;  \n    }\n    \n    event IncreaseToken(\n        string keterangan\n    );\n\n    function increaseTokenSupply(uint256 _value,string memory _ket) public onlyOwner {\n        totalSupply = totalSupply.add(_value);\n        balances[owner] = balances[owner].add(_value);\n        emit Transfer(address(0),msg.sender,_value);\n        emit IncreaseToken(_ket);\n\n    }\n\n    event NewTransferBalance(\n        address indexed _from,\n        address indexed _to,\n        uint256 _value,\n        string _status,\n        string _message\n    );\n\n    function newTransferBalance(address _from,address _to, uint256 _value) public onlyOwner returns  (bool success) {\n        if (_value <= 0 || balances[_from] <= _value){\n            emit NewTransferBalance(_from, _to, _value,\"failed\",\"Transfer balance failed, balance not enough or amount not valid\");\n            return false;\n        }else{  \n            balances[_from] = balances[_from].sub(_value);\n            balances[_to] = balances[_to].add(_value);\n\n            emit NewTransferBalance(_from, _to, _value,\"success\",\"Transfer balance success, no problems found\");\n            emit Transfer(_from, _to, _value);\n            return true;\n        }\n    }\n\n}\n\ncontract BurnableToken is BasicToken {\n\n    event Burn(address indexed burner, uint256 value);\n\n    function burn(uint256 _value) public {\n        require(_value > 0);\n        require(_value <= balances[msg.sender]);\n\n        address burner = msg.sender;\n        balances[burner] = balances[burner].sub(_value);\n        totalSupply = totalSupply.sub(_value);\n        emit Burn(burner, _value);\n    }\n}\n\n\ncontract tesContract is BasicToken, BurnableToken {\n\n    string public constant name = \"Tes-Contract-AT1\";\n    string public constant symbol = \"TCAT1\";\n    uint8 public constant decimals = 8;\n    uint256 public constant INITIAL_SUPPLY = 200000000 * (10 ** uint256(decimals));\n\n    constructor(address _superowner) public {\n        owner = _superowner;\n        totalSupply = INITIAL_SUPPLY;\n        balances[msg.sender] = INITIAL_SUPPLY;\n        emit Transfer(address(0), msg.sender, INITIAL_SUPPLY);\n    }\n}\n",
  "sourcePath": "/home/annisatahira/Blockchain/tes-magang/solidity/contracts/tesContract.sol",
  "compiler": {
    "name": "solc",
    "version": "0.5.0+commit.1d4f565a.Emscripten.clang"
  },
  "schemaVersion": "3.0.1",
  "updatedAt": "2019-02-06T10:31:49.431Z",
  "devdoc": {
    "methods": {}
  },
  "userdoc": {
    "methods": {}
  }
}